:100000000C9462000C9463030C943C030C948A00DF
:100010000C948A000C948A000C948A000C948A0038
:100020000C948A000C948A000C948A000C948A0325
:100030000C948A000C948A000C948A000C948A0018
:100040000C94F2020C948A000C948A000C948A009E
:100050000C948A000C948A000C948A000C948A00F8
:100060000C948A000C948A000000000024002700F1
:100070002A0000000000250028002B0000000000DE
:1000800023002600290004040404040404040202DA
:100090000202020203030303030301020408102007
:1000A0004080010204081020010204081020000012
:1000B0000008000201000003040700000000000027
:1000C00000003E0611241FBECFEFD8E0DEBFCDBF3B
:1000D00011E0A0E0B1E0E2EAFDE002C005900D927F
:1000E000A630B107D9F721E0A6E0B1E001C01D922A
:1000F000A933B207E1F710E0C2E6D0E004C02197CF
:10010000FE010E94C906C136D107C9F70E949004BA
:100110000C94CF060C940000CF92DF92EF92FF92E6
:10012000DC01A03282E0B8070CF03EC0B7FD06C08B
:10013000A53BB1052CF0A4EBB0E002C0A0E0B0E01C
:100140008091370128E830E06901C81AD10887FD9D
:10015000D394CC0CDD1CCC0CDD1C0D2C000CEE085B
:10016000FF088091380128E532E0281B310987FD1E
:100170003395220F331F220F331FA901330F660B54
:10018000770B9A01AB012C193D094E095F090E94BA
:10019000840624EB30E040E050E00E945A06C20E94
:1001A000D31EE41EF51ED601909136019C3098F5C1
:1001B0008091370148E850E0481B510987FD53956D
:1001C000440F551F440F551FA417B5078CF080919D
:1001D000380128E532E0281B310987FD3395220FCD
:1001E000331F220F331FAD012A173B070CF4A9015F
:1001F00042505109440F551F2FB7F894892F90E0B2
:10020000FC01EE0FFF1F8E0F9F1FFC01EE5EFE4FE5
:10021000528341832FBFFF90EF90DF90CF900895DE
:1002200080911101811104C081E080931101089532
:10023000109211010895833081F028F4813099F0F3
:100240008230A1F008958730A9F08830B9F0843069
:10025000D1F4809180008F7D03C0809180008F77E2
:1002600080938000089584B58F7702C084B58F7D18
:1002700084BD08958091B0008F7703C08091B00055
:100280008F7D8093B0000895CF93DF93282F30E0C7
:10029000F901E255FF4F8491F901E656FF4FD491E1
:1002A000F901EA57FF4FC491CC2391F081110E94CC
:1002B0001B01EC2FF0E0EE0FFF1FE458FF4FA5915C
:1002C000B491EC91ED2381E090E021F480E002C054
:1002D00080E090E0DF91CF9108951F93CF93DF935B
:1002E000282F30E0F901E255FF4F8491F901E656DD
:1002F000FF4FD491F901EA57FF4FC491CC23C9F0C5
:10030000162F81110E941B01EC2FF0E0EE0FFF1F52
:10031000EE58FF4FA591B4918FB7F894111105C015
:100320009C91ED2FE095E92302C0EC91ED2BEC932D
:100330008FBFDF91CF911F910895CF93DF9390E00E
:10034000FC01E656FF4F2491FC01EA57FF4F8491D0
:10035000882361F190E0880F991FFC01E859FF4F55
:10036000C591D491FC01EE58FF4FA591B491611154
:1003700009C09FB7F8948881209582238883EC91E7
:100380002E230BC0623061F49FB7F8943881822F1E
:10039000809583238883EC912E2B2C939FBF06C0DE
:1003A0008FB7F894E8812E2B28838FBFDF91CF91F0
:1003B0000895CF93DF93EC0161E085E00E949D01F9
:1003C000209711F460E004C0CF3FD10531F461E023
:1003D00085E0DF91CF910C946D01E3EBF0E0E491C7
:1003E000E330F9F048F4E130B9F0E230A1F584B53A
:1003F000806284BDC8BD34C0E730E9F0E83019F14F
:10040000E43049F580918000806280938000D09331
:100410008B00C0938A0024C084B5806884BDC7BDAA
:100420001FC080918000806880938000D0938900F5
:10043000C093880015C08091B00080688093B000A0
:10044000C093B3000DC08091B00080628093B00073
:10045000C093B40005C0C038D1050CF0B8CFB2CFFE
:10046000DF91CF91089580E090E00E94D90180E073
:1004700090E00E94D9018AE5809305018AE590E029
:100480000E948C001092110108953FB7F89480915A
:100490000D0190910E01A0910F01B091100126B5B0
:1004A000A89B05C02F3F19F00196A11DB11D3FBFAC
:1004B000BA2FA92F982F8827820F911DA11DB11D3A
:1004C000BC01CD0142E0660F771F881F991F4A9536
:1004D000D1F7089508958091040190E00E94D90118
:1004E00060E084E00E946D0161E087E00E946D01A0
:1004F00060E08CE00E946D0161E088E00C946D0189
:100500008091040190E00E94D90161E084E00E94A2
:100510006D0160E087E00E946D0161E08CE00E9467
:100520006D0160E088E00C946D018091040190E021
:100530000E94D90161E084E00E946D0161E087E0E2
:100540000E946D0161E08CE00E946D0161E088E035
:100550000C946D018091040190E00E94D90160E04B
:1005600084E00E946D0160E087E00E946D0160E020
:100570008CE00E946D0160E088E00C946D010F93A7
:100580001F9360E08DE00E946D018BE39FE1019776
:10059000F1F761E08DE00E946D0187E390E0019743
:1005A000F1F760E08DE00E946D0183E290E0019739
:1005B000F1F7E8EAF0E06491E4E9F0E0E491F0E0DA
:1005C000EE0FFF1FE458FF4F8591949100E412E471
:1005D0002FE030E0462F0E944B0480E090E01F9116
:1005E0000F9108951F920F920FB60F9211242F931F
:1005F0003F938F939F93AF93BF9380910901909105
:100600000A01A0910B01B0910C013091080123E087
:10061000230F2D3720F40196A11DB11D05C026E83A
:10062000230F0296A11DB11D20930801809309019B
:1006300090930A01A0930B01B0930C0180910D01DE
:1006400090910E01A0910F01B09110010196A11D92
:10065000B11D80930D0190930E01A0930F01B093F3
:100660001001BF91AF919F918F913F912F910F906A
:100670000FBE0F901F9018951F920F920FB60F92FA
:1006800011242F933F934F935F936F937F938F9397
:100690009F93AF93BF93EF93FF93E0910201F0918B
:1006A00003010995FF91EF91BF91AF919F918F91B8
:1006B0007F916F915F914F913F912F910F900FBE5E
:1006C0000F901F9018951F920F920FB60F92112442
:1006D0002F933F934F935F936F937F938F939F934A
:1006E000AF93BF93EF93FF93E0910001F09101016D
:1006F0000995FF91EF91BF91AF919F918F917F915C
:100700006F915F914F913F912F910F900FBE0F907E
:100710001F9018951F920F920FB60F9211242F93CE
:100720003F934F935F936F937F938F939F93AF9379
:10073000BF93EF93FF938091070187FF05C010924D
:100740008500109284001BC020910701022E000C2E
:10075000330B8091060190E02817390784F48091CB
:100760000701082E000C990BFC01EE0FFF1F8E0FE6
:100770009F1FFC01EE5EFE4F808186FD15C08091BB
:1007800007018F5F8093070120910701022E000C63
:10079000330B8091060190E028173907C4F480914B
:1007A00007018C3064F113C080910701082E000C02
:1007B000990BFC01EE0FFF1F8E0F9F1FFC01EE5ED9
:1007C000FE4F808160E08F730E946D01D8CF8091D1
:1007D000840090918500049680349C4918F480E44C
:1007E0009CE905C0809184009091850004969093C7
:1007F0008900809388008FEF809307013BC0209190
:1008000084003091850080910701082E000C990B1F
:10081000FC01EE0FFF1F8E0F9F1FFC01EE5EFE4FCF
:1008200081819281820F931F909389008093880029
:1008300080910701082E000C990BFC01EE0FFF1FA1
:100840008E0F9F1FFC01EE5EFE4F808186FF12C05F
:1008500080910701082E000C990BFC01EE0FFF1F81
:100860008E0F9F1FFC01EE5EFE4F808161E08F7353
:100870000E946D01FF91EF91BF91AF919F918F9178
:100880007F916F915F914F913F912F910F900FBE8C
:100890000F901F901895CF92DF92EF92FF920F93D7
:1008A0001F93E82FF92F05C00150110921093109C3
:1008B00061F1908196239417B9F305C00150110995
:1008C0002109310911F1908196239413F7CFC12C9E
:1008D000D12CE12CF12C0AC08FEFC81AD80AE80AF3
:1008E000F80A0C151D052E053F0579F08081862339
:1008F000841791F36C2D7D2D8E2D9F2D1F910F91BF
:10090000FF90EF90DF90CF90089560E070E080E07E
:1009100090E01F910F91FF90EF90DF90CF9008959E
:10092000789484B5826084BD84B5816084BD85B5CA
:10093000826085BD85B5816085BD80916E008160D6
:1009400080936E001092810080918100826080937C
:10095000810080918100816080938100809180007E
:100960008160809380008091B10084608093B100A9
:100970008091B00081608093B00080917A008460A3
:1009800080937A0080917A00826080937A008091CF
:100990007A00816080937A0080917A0080688093E9
:1009A0007A001092C10061E085E00E949D0161E043
:1009B00084E00E949D0161E087E00E949D0161E06A
:1009C0008CE00E949D0161E088E00E949D0160E052
:1009D00081E00E949D0160E08BE00E949D0160E04B
:1009E00089E00E949D0160E08AE00E949D0160E034
:1009F00083E00E949D0161E086E00E949D0161E02C
:100A00008DE00E949D0160E08EE00E949D0162E009
:100A100082E00E949D0183E392E090930101809324
:100A20000001809169008C7F816080936900E89A61
:100A300062E083E00E949D0180E191E090930301D8
:100A40008093020180916900837F846080936900B4
:100A5000E99A809136018C3008F051C061E086E05F
:100A60000E949D0180913601E82FF0E09F01220F46
:100A7000331FE20FF31FEE5EFE4F9081907C966075
:100A8000908310923701109238016CE00E94BD06ED
:100A90002CE0829FB001112440E050E09A01260F23
:100AA000371FF901EE0FFF1F2E0F3F1FF901EE5EFA
:100AB000FE4F908196FD16C04F5F5F4F4C30510541
:100AC00069F781110FC01092800082E0809381004D
:100AD0001092850010928400B19A80916F0082601C
:100AE00080936F00E0913601F0E0CF01880F991FED
:100AF000E80FF91FEE5EFE4F8081806480831CE367
:100B0000C0E0D0E00FEF2AE5B22E34EBA32E9DE734
:100B1000992E80E00E944401813081F4809104018B
:100B20008D3739F08F3F41F08C3331F490920401CE
:100B300005C00093040102C01093040180911101CB
:100B4000813009F07CC080911101813009F090C0A2
:100B5000B09205018AE590E00E948C000E94BF02DD
:100B60007C011092050180E090E00E948C000E94C0
:100B7000BF026C01A092050184EB90E00E948C0002
:100B80000E94BF02CE14DF0434F48E159F0564F476
:100B90000E94AA0214C0EC14FD0434F48C159D05C7
:100BA0001CF40E9480020BC0C816D90634F4E81663
:100BB000F9061CF40E946B0202C00E9495020E947A
:100BC00045022B013C0184E6C82ED12CE12CF12CEE
:100BD0000E944502DC01CB0184199509A609B709D9
:100BE000883E9340A105B10580F081E0C81AD10884
:100BF000E108F10898EE490E93E0591E611C711C42
:100C0000C114D104E104F10419F7C114D104E104C1
:100C1000F104F1F698CF81E00E944401D82E81E0E2
:100C20000E944401E82E81E00E944401F82E81E0F8
:100C30000E94440191E0D91207C00E94AA0280914B
:100C40001101882341F314C021E0E21203C00E9485
:100C50009502F5CF91E0F91203C00E948002EFCF18
:100C6000813019F40E946B02EACF0E943302E7CF71
:100C7000209709F44ECF0E94000049CF80910601D1
:100C80008C30A0F491E0980F909306018093360188
:100C900090E0FC01EE0FFF1F8E0F9F1FFC01EE5E28
:100CA000FE4F88EB9BE09283818308958FEF8093C2
:100CB00036010895052E97FB1EF400940E947106DC
:100CC00057FD07D00E948C0607FC03D04EF40C940D
:100CD000710650954095309521953F4F4F4F5F4F8E
:100CE000089590958095709561957F4F8F4F9F4F98
:100CF00008950E94AE06A59F900DB49F900DA49FED
:100D0000800D911D11240895B7FF0C9479060E945F
:100D10007906821B930B0895A1E21A2EAA1BBB1B16
:100D2000FD010DC0AA1FBB1FEE1FFF1FA217B307B7
:100D3000E407F50720F0A21BB30BE40BF50B661FCD
:100D4000771F881F991F1A9469F760957095809591
:100D500090959B01AC01BD01CF010895A29FB00108
:100D6000B39FC001A39F700D811D1124911DB29FDF
:100D7000700D811D1124911D0895991B79E004C007
:100D8000991F961708F0961B881F7A95C9F78095CA
:100D90000895EE0FFF1F0590F491E02D0994F8944B
:020DA000FFCF83
:060DA2006A026A023C5ADD
:107E0000112484B714BE81FFF0D085E080938100F7
:107E100082E08093C00088E18093C10086E0809377
:107E2000C20080E18093C4008EE0C9D0259A86E02C
:107E300020E33CEF91E0309385002093840096BBD3
:107E4000B09BFECF1D9AA8958150A9F7CC24DD24C4
:107E500088248394B5E0AB2EA1E19A2EF3E0BF2EE7
:107E6000A2D0813461F49FD0082FAFD0023811F036
:107E7000013811F484E001C083E08DD089C08234E0
:107E800011F484E103C0853419F485E0A6D080C0E4
:107E9000853579F488D0E82EFF2485D0082F10E0AE
:107EA000102F00270E291F29000F111F8ED06801E7
:107EB0006FC0863521F484E090D080E0DECF843638
:107EC00009F040C070D06FD0082F6DD080E0C81688
:107ED00080E7D80618F4F601B7BEE895C0E0D1E017
:107EE00062D089930C17E1F7F0E0CF16F0E7DF06D8
:107EF00018F0F601B7BEE89568D007B600FCFDCFD4
:107F0000A601A0E0B1E02C9130E011968C91119780
:107F100090E0982F8827822B932B1296FA010C0160
:107F200087BEE89511244E5F5F4FF1E0A038BF0790
:107F300051F7F601A7BEE89507B600FCFDCF97BE46
:107F4000E89526C08437B1F42ED02DD0F82E2BD052
:107F50003CD0F601EF2C8F010F5F1F4F84911BD097
:107F6000EA94F801C1F70894C11CD11CFA94CF0C13
:107F7000D11C0EC0853739F428D08EE10CD085E9AC
:107F80000AD08FE07ACF813511F488E018D01DD067
:107F900080E101D065CF982F8091C00085FFFCCF94
:107FA0009093C60008958091C00087FFFCCF809118
:107FB000C00084FD01C0A8958091C6000895E0E648
:107FC000F0E098E1908380830895EDDF803219F02E
:107FD00088E0F5DFFFCF84E1DECF1F93182FE3DFCA
:107FE0001150E9F7F2DF1F91089580E0E8DFEE27F6
:047FF000FF270994CA
:027FFE00040479
:0400000300007E007B
:00000001FF
